{
  "contractName": "Exchange",
  "abi": [
    {
      "constant": true,
      "inputs": [
        {
          "name": "",
          "type": "uint256"
        }
      ],
      "name": "items",
      "outputs": [
        {
          "name": "id",
          "type": "uint256"
        },
        {
          "name": "name",
          "type": "string"
        },
        {
          "name": "price",
          "type": "uint256"
        },
        {
          "name": "description",
          "type": "string"
        },
        {
          "name": "owner",
          "type": "address"
        },
        {
          "name": "sold",
          "type": "bool"
        }
      ],
      "payable": false,
      "stateMutability": "view",
      "type": "function"
    },
    {
      "constant": true,
      "inputs": [],
      "name": "itemsCount",
      "outputs": [
        {
          "name": "",
          "type": "uint256"
        }
      ],
      "payable": false,
      "stateMutability": "view",
      "type": "function"
    },
    {
      "inputs": [],
      "payable": false,
      "stateMutability": "nonpayable",
      "type": "constructor"
    },
    {
      "constant": false,
      "inputs": [
        {
          "name": "_name",
          "type": "string"
        },
        {
          "name": "_desc",
          "type": "string"
        },
        {
          "name": "_owner",
          "type": "address"
        },
        {
          "name": "_price",
          "type": "uint256"
        }
      ],
      "name": "add_Item",
      "outputs": [],
      "payable": false,
      "stateMutability": "nonpayable",
      "type": "function"
    },
    {
      "constant": false,
      "inputs": [
        {
          "name": "_id",
          "type": "uint256"
        }
      ],
      "name": "buy_Item",
      "outputs": [],
      "payable": false,
      "stateMutability": "nonpayable",
      "type": "function"
    }
  ],
  "bytecode": "0x608060405234801561001057600080fd5b506000600181905550610830806100286000396000f3fe608060405234801561001057600080fd5b506004361061004c5760003560e01c8063a3f12cc214610051578063bfb231d21461007f578063d05a7996146101de578063e2c03ace1461035a575b600080fd5b61007d6004803603602081101561006757600080fd5b8101908080359060200190929190505050610378565b005b6100ab6004803603602081101561009557600080fd5b810190808035906020019092919050505061043a565b6040518087815260200180602001868152602001806020018573ffffffffffffffffffffffffffffffffffffffff1673ffffffffffffffffffffffffffffffffffffffff16815260200184151515158152602001838103835288818151815260200191508051906020019080838360005b8381101561013757808201518184015260208101905061011c565b50505050905090810190601f1680156101645780820380516001836020036101000a031916815260200191505b50838103825286818151815260200191508051906020019080838360005b8381101561019d578082015181840152602081019050610182565b50505050905090810190601f1680156101ca5780820380516001836020036101000a031916815260200191505b509850505050505050505060405180910390f35b610358600480360360808110156101f457600080fd5b810190808035906020019064010000000081111561021157600080fd5b82018360208201111561022357600080fd5b8035906020019184600183028401116401000000008311171561024557600080fd5b91908080601f016020809104026020016040519081016040528093929190818152602001838380828437600081840152601f19601f820116905080830192505050505050509192919290803590602001906401000000008111156102a857600080fd5b8201836020820111156102ba57600080fd5b803590602001918460018302840111640100000000831117156102dc57600080fd5b91908080601f016020809104026020016040519081016040528093929190818152602001838380828437600081840152601f19601f820116905080830192505050505050509192919290803573ffffffffffffffffffffffffffffffffffffffff169060200190929190803590602001909291905050506105d3565b005b61036261070b565b6040518082815260200191505060405180910390f35b60008082815260200190815260200160002060040160009054906101000a900473ffffffffffffffffffffffffffffffffffffffff1673ffffffffffffffffffffffffffffffffffffffff166108fc600080848152602001908152602001600020600201549081150290604051600060405180830381858888f19350505050158015610408573d6000803e3d6000fd5b50600160008083815260200190815260200160002060040160146101000a81548160ff02191690831515021790555050565b6000602052806000526040600020600091509050806000015490806001018054600181600116156101000203166002900480601f0160208091040260200160405190810160405280929190818152602001828054600181600116156101000203166002900480156104ec5780601f106104c1576101008083540402835291602001916104ec565b820191906000526020600020905b8154815290600101906020018083116104cf57829003601f168201915b505050505090806002015490806003018054600181600116156101000203166002900480601f0160208091040260200160405190810160405280929190818152602001828054600181600116156101000203166002900480156105905780601f1061056557610100808354040283529160200191610590565b820191906000526020600020905b81548152906001019060200180831161057357829003601f168201915b5050505050908060040160009054906101000a900473ffffffffffffffffffffffffffffffffffffffff16908060040160149054906101000a900460ff16905086565b6105db610711565b6040518060c0016040528060015481526020018681526020018381526020018581526020018473ffffffffffffffffffffffffffffffffffffffff16815260200160001515815250905080600080600154815260200190815260200160002060008201518160000155602082015181600101908051906020019061066092919061075f565b5060408201518160020155606082015181600301908051906020019061068792919061075f565b5060808201518160040160006101000a81548173ffffffffffffffffffffffffffffffffffffffff021916908373ffffffffffffffffffffffffffffffffffffffff16021790555060a08201518160040160146101000a81548160ff0219169083151502179055509050506001600081548092919060010191905055505050505050565b60015481565b6040518060c0016040528060008152602001606081526020016000815260200160608152602001600073ffffffffffffffffffffffffffffffffffffffff1681526020016000151581525090565b828054600181600116156101000203166002900490600052602060002090601f016020900481019282601f106107a057805160ff19168380011785556107ce565b828001600101855582156107ce579182015b828111156107cd5782518255916020019190600101906107b2565b5b5090506107db91906107df565b5090565b61080191905b808211156107fd5760008160009055506001016107e5565b5090565b9056fea165627a7a723058208924d69da40afb49840e987a7d811f6c6917320028f0a13908354abd100f0b7d0029",
  "source": "pragma solidity ^0.5.8;\n\ncontract Exchange {\n    \n    // An item\n    struct Item {\n        uint id;\n        string name;\n        uint price;\n        string description;\n        address payable owner;\n        bool sold;\n    }\n\n    // Objects available\n    mapping(uint => Item) public items;\n    \n    // Store Items count\n    uint public itemsCount;\n\n    constructor () public {\n        itemsCount = 0;\n    }\n\n    function add_Item (string memory _name, string memory _desc, address payable _owner, uint _price) public{\n        // TODO: Add fields verifications\n        // TODO: verify duplicate objects (by name) \n        Item memory  t_item = Item (itemsCount, _name, _price, _desc, _owner, false);\n        items[itemsCount] = t_item;\n        itemsCount++;\n    }\n\n    function buy_Item (uint _id) public {\n        // TODO: Verify object exists\n        // TODO: Verify if price is enough to sell\n        items[_id].owner.transfer(items[_id].price); // Not sure of this will send the money...\n        items[_id].sold = true;\n    }\n}\n",
  "sourcePath": "/home/chizisch/Dapp/Election/contracts/Exchange.sol",
  "compiler": {
    "name": "solc",
    "version": "0.5.8+commit.23d335f2.Emscripten.clang"
  },
  "schemaVersion": "3.0.13",
  "updatedAt": "2019-08-27T19:32:27.838Z",
  "devdoc": {
    "methods": {}
  },
  "userdoc": {
    "methods": {}
  }
}