{
  "contractName": "Exchange",
  "abi": [
    {
      "constant": true,
      "inputs": [
        {
          "name": "",
          "type": "uint256"
        }
      ],
      "name": "items",
      "outputs": [
        {
          "name": "id",
          "type": "uint256"
        },
        {
          "name": "name",
          "type": "string"
        },
        {
          "name": "description",
          "type": "string"
        },
        {
          "name": "price",
          "type": "uint256"
        },
        {
          "name": "owner",
          "type": "address"
        },
        {
          "name": "sold",
          "type": "bool"
        }
      ],
      "payable": false,
      "stateMutability": "view",
      "type": "function"
    },
    {
      "constant": true,
      "inputs": [],
      "name": "itemsCount",
      "outputs": [
        {
          "name": "",
          "type": "uint256"
        }
      ],
      "payable": false,
      "stateMutability": "view",
      "type": "function"
    },
    {
      "inputs": [],
      "payable": false,
      "stateMutability": "nonpayable",
      "type": "constructor"
    },
    {
      "constant": false,
      "inputs": [
        {
          "name": "_name",
          "type": "string"
        },
        {
          "name": "_desc",
          "type": "string"
        },
        {
          "name": "_owner",
          "type": "address"
        },
        {
          "name": "_price",
          "type": "uint256"
        }
      ],
      "name": "add_Item",
      "outputs": [],
      "payable": false,
      "stateMutability": "nonpayable",
      "type": "function"
    },
    {
      "constant": false,
      "inputs": [
        {
          "name": "_id",
          "type": "uint256"
        }
      ],
      "name": "buy_Item",
      "outputs": [],
      "payable": true,
      "stateMutability": "payable",
      "type": "function"
    }
  ],
  "bytecode": "0x608060405234801561001057600080fd5b506100a26040518060400160405280600581526020017f4974656d310000000000000000000000000000000000000000000000000000008152506040518060400160405280600581526020017f4465736331000000000000000000000000000000000000000000000000000000815250738fb973565a620db066b5791c42f84ece8256e25860146100ae60201b60201c565b600180819055506102d9565b6100b66101e6565b6040518060c0016040528060015481526020018681526020018581526020018381526020018473ffffffffffffffffffffffffffffffffffffffff16815260200160001515815250905080600080600154815260200190815260200160002060008201518160000155602082015181600101908051906020019061013b929190610234565b506040820151816002019080519060200190610158929190610234565b506060820151816003015560808201518160040160006101000a81548173ffffffffffffffffffffffffffffffffffffffff021916908373ffffffffffffffffffffffffffffffffffffffff16021790555060a08201518160040160146101000a81548160ff0219169083151502179055509050506001600081548092919060010191905055505050505050565b6040518060c0016040528060008152602001606081526020016060815260200160008152602001600073ffffffffffffffffffffffffffffffffffffffff1681526020016000151581525090565b828054600181600116156101000203166002900490600052602060002090601f016020900481019282601f1061027557805160ff19168380011785556102a3565b828001600101855582156102a3579182015b828111156102a2578251825591602001919060010190610287565b5b5090506102b091906102b4565b5090565b6102d691905b808211156102d25760008160009055506001016102ba565b5090565b90565b610870806102e86000396000f3fe60806040526004361061003f5760003560e01c8063a3f12cc214610044578063bfb231d214610072578063d05a7996146101de578063e2c03ace14610367575b600080fd5b6100706004803603602081101561005a57600080fd5b8101908080359060200190929190505050610392565b005b34801561007e57600080fd5b506100ab6004803603602081101561009557600080fd5b810190808035906020019092919050505061047a565b6040518087815260200180602001806020018681526020018573ffffffffffffffffffffffffffffffffffffffff1673ffffffffffffffffffffffffffffffffffffffff16815260200184151515158152602001838103835288818151815260200191508051906020019080838360005b8381101561013757808201518184015260208101905061011c565b50505050905090810190601f1680156101645780820380516001836020036101000a031916815260200191505b50838103825287818151815260200191508051906020019080838360005b8381101561019d578082015181840152602081019050610182565b50505050905090810190601f1680156101ca5780820380516001836020036101000a031916815260200191505b509850505050505050505060405180910390f35b3480156101ea57600080fd5b506103656004803603608081101561020157600080fd5b810190808035906020019064010000000081111561021e57600080fd5b82018360208201111561023057600080fd5b8035906020019184600183028401116401000000008311171561025257600080fd5b91908080601f016020809104026020016040519081016040528093929190818152602001838380828437600081840152601f19601f820116905080830192505050505050509192919290803590602001906401000000008111156102b557600080fd5b8201836020820111156102c757600080fd5b803590602001918460018302840111640100000000831117156102e957600080fd5b91908080601f016020809104026020016040519081016040528093929190818152602001838380828437600081840152601f19601f820116905080830192505050505050509192919290803573ffffffffffffffffffffffffffffffffffffffff16906020019092919080359060200190929190505050610613565b005b34801561037357600080fd5b5061037c61074b565b6040518082815260200191505060405180910390f35b60015481106103a057600080fd5b80600011156103ae57600080fd5b60008082815260200190815260200160002060040160009054906101000a900473ffffffffffffffffffffffffffffffffffffffff1673ffffffffffffffffffffffffffffffffffffffff166108fc670de0b6b3a764000060008085815260200190815260200160002060030154029081150290604051600060405180830381858888f19350505050158015610448573d6000803e3d6000fd5b50600160008083815260200190815260200160002060040160146101000a81548160ff02191690831515021790555050565b6000602052806000526040600020600091509050806000015490806001018054600181600116156101000203166002900480601f01602080910402602001604051908101604052809291908181526020018280546001816001161561010002031660029004801561052c5780601f106105015761010080835404028352916020019161052c565b820191906000526020600020905b81548152906001019060200180831161050f57829003601f168201915b505050505090806002018054600181600116156101000203166002900480601f0160208091040260200160405190810160405280929190818152602001828054600181600116156101000203166002900480156105ca5780601f1061059f576101008083540402835291602001916105ca565b820191906000526020600020905b8154815290600101906020018083116105ad57829003601f168201915b5050505050908060030154908060040160009054906101000a900473ffffffffffffffffffffffffffffffffffffffff16908060040160149054906101000a900460ff16905086565b61061b610751565b6040518060c0016040528060015481526020018681526020018581526020018381526020018473ffffffffffffffffffffffffffffffffffffffff1681526020016000151581525090508060008060015481526020019081526020016000206000820151816000015560208201518160010190805190602001906106a092919061079f565b5060408201518160020190805190602001906106bd92919061079f565b506060820151816003015560808201518160040160006101000a81548173ffffffffffffffffffffffffffffffffffffffff021916908373ffffffffffffffffffffffffffffffffffffffff16021790555060a08201518160040160146101000a81548160ff0219169083151502179055509050506001600081548092919060010191905055505050505050565b60015481565b6040518060c0016040528060008152602001606081526020016060815260200160008152602001600073ffffffffffffffffffffffffffffffffffffffff1681526020016000151581525090565b828054600181600116156101000203166002900490600052602060002090601f016020900481019282601f106107e057805160ff191683800117855561080e565b8280016001018555821561080e579182015b8281111561080d5782518255916020019190600101906107f2565b5b50905061081b919061081f565b5090565b61084191905b8082111561083d576000816000905550600101610825565b5090565b9056fea165627a7a72305820a62f21312275005f514a4d49c565de1fd2ed1bcc096d22322bd795fa0b9b96310029",
  "source": "pragma solidity ^0.5.8;\n\ncontract Exchange {\n    \n    // An item\n    struct Item {\n        uint id;\n        string name;\n        string description;\n        uint price;\n        address payable owner;\n        bool sold;\n    }\n\n    // Objects available\n    mapping(uint => Item) public items;\n    \n    // Store Items count\n    uint public itemsCount;\n\n    constructor () public {\n    \tadd_Item (\"Item1\", \"Desc1\", 0x8FB973565A620DB066B5791c42F84eCe8256e258, 20);\n        itemsCount = 1;\n    }\n\n    function add_Item (string memory _name, string memory _desc, address payable _owner, uint _price) public{\n        // TODO: Add fields verifications\n        // TODO: verify duplicate objects (by name) \n        Item memory  t_item = Item (itemsCount, _name, _desc, _price, _owner, false);\n        items[itemsCount] = t_item;\n        itemsCount++;\n    }\n\n    function buy_Item (uint _id) payable public {\n        // TODO: Verify object exists\n        require(_id < itemsCount);\n        require(0 <= _id);\n        // TODO: Verify if price is enough to sell\n        items[_id].owner.transfer(items[_id].price * 1000000000000000000); // Not sure of this will send the money...\n        items[_id].sold = true;\n    }\n}\n",
  "sourcePath": "/home/chizisch/Dapp/Exchange/contracts/Exchange.sol",
  "compiler": {
    "name": "solc",
    "version": "0.5.8+commit.23d335f2.Emscripten.clang"
  },
  "schemaVersion": "3.0.13",
  "updatedAt": "2019-08-29T14:00:33.234Z",
  "devdoc": {
    "methods": {}
  },
  "userdoc": {
    "methods": {}
  }
}